:100000000C9462000C948A000C948A000C948A0070
:100010000C948A000C948A000C948A000C948A0038
:100020000C948A000C948A000C948A000C948A0028
:100030000C948A000C948A000C948A000C948A0018
:100040000C94E5020C948A000C94B3020C948D027B
:100050000C948A000C948A000C948A000C948A00F8
:100060000C948A000C948A00000000080002010031
:100070000003040700000000000000000000000072
:10008000250028002B0000000000240027002A0083
:1000900000000000230026002900040404040404D6
:1000A0000404020202020202030303030303010227
:1000B00004081020408001020408102001020408F6
:1000C00010201B0511241FBECFEFD8E0DEBFCDBF2F
:1000D00011E0A0E0B1E0E8E7FEE002C005900D927B
:1000E000AE32B107D9F721E0AEE2B1E001C01D9216
:1000F000A43DB207E1F710E0C2E6D0E004C02197CA
:10010000FE010E943407C136D107C9F70E9474036B
:100110000C943A070C940000AF92BF92CF92DF92FA
:10012000EF92FF920F931F93CF93DF936C017B01AC
:100130008B01040F151FEB015E01AE18BF08C0173D
:10014000D10759F06991D601ED91FC910190F081B0
:10015000E02DC6010995892B79F7C501DF91CF9173
:100160001F910F91FF90EF90DF90CF90BF90AF90D5
:100170000895FC01538D448D252F30E0842F90E0AD
:10018000821B930B541710F0CF9608950197089592
:10019000FC01918D828D981761F0A28DAE0FBF2F5B
:1001A000B11D5D968C91928D9F5F9F73928F90E0B1
:1001B00008958FEF9FEF0895FC01918D828D981720
:1001C00031F0828DE80FF11D858D90E008958FEF5D
:1001D0009FEF0895FC01918D228D892F90E0805C26
:1001E0009F4F821B91098F739927089587E391E0B0
:1001F0000E94EA0021E0892B09F420E0822F089573
:1002000080E090E0892B29F00E94F60081110C9487
:1002100000000895FC01A48DA80FB92FB11DA35AA9
:10022000BF4F2C91848D90E001968F739927848F16
:10023000A689B7892C93A089B1898C918370806439
:100240008C93938D848D981306C00288F389E02DDA
:1002500080818F7D80830895EF92FF920F931F938B
:10026000CF93DF93EC0181E0888F9B8D8C8D981369
:100270001AC0E889F989808185FF15C09FB7F89475
:10028000EE89FF896083E889F989808183708064C1
:1002900080839FBF81E090E0DF91CF911F910F910C
:1002A000FF90EF900895F62E0B8D10E00F5F1F4F1B
:1002B0000F731127E02E8C8D8E110CC00FB607FC2A
:1002C000FACFE889F989808185FFF5CFCE010E94B8
:1002D0000A01F1CFEB8DEC0FFD2FF11DE35AFF4F1B
:1002E000F0829FB7F8940B8FEA89FB898081806246
:1002F000CFCFCF93DF93EC01888D8823B9F0AA8903
:10030000BB89E889F9898C9185FD03C0808186FDD0
:100310000DC00FB607FCF7CF8C9185FFF2CF80811F
:1003200085FFEDCFCE010E940A01E9CFDF91CF9189
:10033000089590E0FC01E859FF4F2491FC01E2553B
:10034000FF4F3491FC01E656FF4FE491EE23C9F0D4
:10035000222339F0233001F1A8F4213019F12230A1
:1003600029F1F0E0EE0FFF1FE458FF4FA591B49183
:100370008FB7F894EC91611126C030953E233C93E1
:100380008FBF08952730A9F02830C9F0243049F7ED
:10039000809180008F7D03C0809180008F77809353
:1003A0008000DFCF84B58F7784BDDBCF84B58F7DB0
:1003B000FBCF8091B0008F778093B000D2CF809137
:1003C000B0008F7DF9CF3E2BDACF3FB7F894809104
:1003D000330190913401A0913501B091360126B5D9
:1003E000A89B05C02F3F19F00196A11DB11D3FBF6D
:1003F000BA2FA92F982F8827BC01CD01620F711D3C
:10040000811D911D42E0660F771F881F991F4A9535
:10041000D1F708958F929F92AF92BF92CF92DF92C1
:10042000EF92FF924B015C010E94E5016B017C01A0
:100430000E94E5016C197D098E099F09683E734091
:1004400081059105A8F321E0821A9108A108B1085D
:1004500088EEC80E83E0D81EE11CF11C81149104C3
:10046000A104B10429F7FF90EF90DF90CF90BF90E7
:10047000AF909F908F900895FC0101900020E9F7C4
:100480003197AF01481B590BBC0187E391E00C94F5
:100490008C008F929F92AF92BF920F931F93CF9336
:1004A000DF93CDB7DEB7A1970FB6F894DEBF0FBECE
:1004B000CDBF19A2423008F44AE08E010F5D1F4FF4
:1004C000842E912CB12CA12CA50194010E9412071D
:1004D000E62FB901CA01EA30F4F4E05DD801EE93E9
:1004E0008D01232B242B252B79F790E080E01097AA
:1004F00019F0CD010E943C02A1960FB6F894DEBF20
:100500000FBECDBFDF91CF911F910F91BF90AF90E4
:100510009F908F900895E95CE1CF1F920F920FB6E4
:100520000F9211242F933F934F935F936F937F9379
:100530008F939F93AF93BF93EF93FF9387E391E0E4
:100540000E940A01FF91EF91BF91AF919F918F910E
:100550007F916F915F914F913F912F910F900FBEBF
:100560000F901F9018951F920F920FB60F921124A3
:100570002F938F939F93EF93FF93E0914701F09117
:1005800048018081E0914D01F0914E0182FD1BC038
:100590009081809150018F5F8F732091510182175C
:1005A00041F0E0915001F0E0E95CFE4F958F8093BF
:1005B0005001FF91EF919F918F912F910F900FBE5E
:1005C0000F901F9018958081F4CF1F920F920FB655
:1005D0000F9211242F933F938F939F93AF93BF93C9
:1005E00080912F0190913001A0913101B0913201A1
:1005F00030912E0123E0230F2D3758F50196A11DD0
:10060000B11D20932E0180932F0190933001A09370
:100610003101B09332018091330190913401A09166
:100620003501B09136010196A11DB11D80933301B2
:1006300090933401A0933501B0933601BF91AF91EF
:100640009F918F913F912F910F900FBE0F901F9010
:10065000189526E8230F0296A11DB11DD2CFCF9287
:10066000DF92EF92FF920F931F93E82FF92F05C0AF
:10067000015011092109310961F1908196239417E4
:10068000B9F305C0015011092109310911F1908117
:1006900096239413F7CFC12CD12CE12CF12C0AC056
:1006A0008FEFC81AD80AE80AF80A0C151D052E059E
:1006B0003F0579F080818623841791F36C2D7D2D81
:1006C0008E2D9F2D1F910F91FF90EF90DF90CF9077
:1006D000089560E070E080E090E01F910F91FF903E
:1006E000EF90DF90CF900895789484B5826084BDB8
:1006F00084B5816084BD85B5826085BD85B5816026
:1007000085BD80916E00816080936E0010928100A3
:10071000809181008260809381008091810081605E
:10072000809381008091800081608093800080911F
:10073000B10084608093B1008091B00081608093AB
:10074000B00080917A00846080937A0080917A0072
:10075000826080937A0080917A00816080937A0031
:1007600080917A00806880937A001092C100E091B5
:100770004701F091480182E08083E0914301F091CC
:1007800044011082E0914501F09146018FEC808395
:1007900010924F01E0914B01F0914C0186E0808373
:1007A000E0914901F0914A01808180618083E0916C
:1007B0004901F0914A01808188608083E09149017C
:1007C000F0914A01808180688083E0914901F09135
:1007D0004A0180818F7D8083E5EBF0E02491E1EA9E
:1007E000F0E08491882399F090E0880F991FFC0134
:1007F000EA57FF4FA591B491FC01E458FF4F859152
:1008000094918FB7F894EC91E22BEC938FBF44EB6B
:10081000242E40E0342EF1012491C0EAD0E0FE0104
:1008200084918823C9F090E0880F991FFC01EA5752
:10083000FF4FA591B491FC01E458FF4F45915491AD
:100840003FB7F8949C91822F809598239C93FA014E
:100850009081892380833FBF93E2A92EB12C20E0B1
:10086000822E20E0922E60E087E00E94990168EEDF
:1008700073E080E090E00E940A0261E087E00E945D
:100880009901C5010197F1F760E087E00E949901A5
:10089000F1016491FE018491E82FF0E0EE0FFF1F5B
:1008A000E057FF4F8591949100E412E42FE030E08F
:1008B000462F0E942F03611571058105910529F0CE
:1008C0006F5F7F4F8F4F9F4F9F700E94E90520E021
:1008D00030E040E05FE30E94A00626E933E44BE00D
:1008E0005DE30E94A0066B017C0182E191E00E9421
:1008F0003C02A7019601C701B6010E940D0788239B
:10090000F1F08BE191E00E943C0287E291E00E94CD
:100910003C028BE291E00E943C0264E071E080E0E6
:1009200090E00E940A028114910409F49CCF0E9475
:10093000F600882309F497CF0E94000094CF2FEF90
:100940003FEF4FE75FE7C701B6010E940D07811136
:100950000DC02FEF3FEF4FE75FE7C701B6010E94E1
:10096000B50518161CF48FE191E0CDCF2FEF3FEFC6
:100970004FE75FE4C701B6010E949B0618161CF4FE
:1009800083E291E0C0CF2FEF3FEF4FE75FECC7016D
:10099000B6010E94B50587FDF3CF2AE037ED43EAA3
:1009A0005BE3C701B6010E9449052B013C010E948F
:1009B000BA056B017C010E94E9059B01AC01C301F2
:1009C000B2010E9448052B013C014AE0C701B60173
:1009D0000E9449026EE287E391E00E942C0120E030
:1009E00030E040E251E4C301B2010E94A0062B01B5
:1009F0003C010E94BA056B01F12CE12C4AE0C701D1
:100A0000B6010E944902C701B6010E94E9059B0197
:100A1000AC01C301B2010E94480520E030E040E291
:100A200051E40E94A0060E94BA0590E080E04AE0EE
:100A30000E9449026ACFE7E3F1E01382128288EE56
:100A400093E0A0E0B0E084839583A683B78384E03D
:100A500091E09183808385EC90E09587848784EC96
:100A600090E09787868780EC90E0918B808B81EC7B
:100A700090E0938B828B82EC90E0958B848B86EC5C
:100A800090E0978B868B118E128E138E148E0895A4
:100A90005058BB27AA270E9460050C9461060E944B
:100AA000530638F00E945A0620F039F49F3F19F49B
:100AB00026F40C9450060EF4E095E7FB0C944A06DD
:100AC000E92F0E94720658F3BA176207730784076A
:100AD000950720F079F4A6F50C9494060EF4E095B1
:100AE0000B2EBA2FA02D0B01B90190010C01CA01E8
:100AF000A0011124FF27591B99F0593F50F4503E93
:100B000068F11A16F040A22F232F342F4427585F84
:100B1000F3CF469537952795A795F0405395C9F79C
:100B20007EF41F16BA0B620B730B840BBAF0915054
:100B3000A1F0FF0FBB1F661F771F881FC2F70EC0F3
:100B4000BA0F621F731F841F48F4879577956795C6
:100B5000B795F7959E3F08F0B0CF9395880F08F0B2
:100B60009927EE0F9795879508950E94260608F419
:100B700081E008950E947A0688F09F5798F0B92F77
:100B80009927B751B0F0E1F0660F771F881F991FC2
:100B90001AF0BA95C9F714C0B13091F00E949406CA
:100BA000B1E008950C949406672F782F8827B85FDA
:100BB00039F0B93FCCF3869577956795B395D9F71A
:100BC0003EF490958095709561957F4F8F4F9F4F24
:100BD0000895E89409C097FB3EF490958095709530
:100BE00061957F4F8F4F9F4F9923A9F0F92F96E979
:100BF000BB279395F695879577956795B795F111EE
:100C0000F8CFFAF4BB0F11F460FF1BC06F5F7F4F8A
:100C10008F4F9F4F16C0882311F096E911C077239C
:100C200021F09EE8872F762F05C0662371F096E8A5
:100C3000862F70E060E02AF09A95660F771F881F74
:100C4000DAF7880F9695879597F90895990F000818
:100C5000550FAA0BE0E8FEEF16161706E807F9078E
:100C6000C0F012161306E407F50798F0621B730B29
:100C7000840B950B39F40A2661F0232B242B252BAA
:100C800021F408950A2609F4A140A6958FEF811D4D
:100C9000811D089597F99F6780E870E060E00895EE
:100CA0009FEF80EC089500240A9416161706180684
:100CB0000906089500240A94121613061406050660
:100CC0000895092E0394000C11F4882352F0BB0FF1
:100CD00040F4BF2B11F460FF04C06F5F7F4F8F4F54
:100CE0009F4F089557FD9058440F551F59F05F3F8F
:100CF00071F04795880F97FB991F61F09F3F79F03E
:100D000087950895121613061406551FF2CF4695BF
:100D1000F1DF08C0161617061806991FF1CF869541
:100D20007105610508940895E894BB276627772725
:100D3000CB0197F908950E94260608F48FEF0895D5
:100D40000E94B3060C9461060E94530638F00E947C
:100D50005A0620F0952311F00C944A060C94500684
:100D600011240C9495060E94720670F3959FC1F3AE
:100D7000950F50E0551F629FF001729FBB27F00D49
:100D8000B11D639FAA27F00DB11DAA1F649F66279E
:100D9000B00DA11D661F829F2227B00DA11D621FED
:100DA000739FB00DA11D621F839FA00D611D221FA7
:100DB000749F3327A00D611D231F849F600D211D8B
:100DC000822F762F6A2F11249F5750409AF0F1F00E
:100DD00088234AF0EE0FFF1FBB1F661F771F881F77
:100DE00091505040A9F79E3F510580F00C944A065F
:100DF0000C9495065F3FE4F3983ED4F3869577957F
:100E00006795B795F795E7959F5FC1F7FE2B880F1C
:100E1000911D9695879597F908950E942606880B4F
:100E2000990B0895A1E21A2EAA1BBB1BFD010DC050
:100E3000AA1FBB1FEE1FFF1FA217B307E407F5078A
:100E400020F0A21BB30BE40BF50B661F771F881F66
:100E5000991F1A9469F760957095809590959B01FC
:100E6000AC01BD01CF010895EE0FFF1F0590F49175
:080E7000E02D0994F894FFCF76
:100E7800000000002C018C00B9007901EA00C800CC
:100E8800DC004A6172616B203D20006E616E006972
:0E0E98006E66006F76660020636D000D0A0026
:00000001FF
