:100000000C945D000C9485000C9485000C94850084
:100010000C9485000C9485000C9485000C9485004C
:100020000C9485000C9485000C9485000C9485003C
:100030000C9485000C9485000C9485000C9485002C
:100040000C9438040C9485000C9406040C94E00382
:100050000C9485000C9485000C9485000C9485000C
:100060000C9485000C94850000000008000201003B
:100070000003040700000000000000000000000072
:10008000250028002B0000000000240027002A0083
:10009000040404040404040402020202020203032E
:1000A0000303030301020408102040800102040836
:1000B0001020010204081020820411241FBECFEF7B
:1000C000D8E0DEBFCDBF11E0A0E0B1E0ECECF0E1A4
:1000D00002C005900D92A434B107D9F722E0A4E440
:1000E000B1E001C01D92A230B207E1F710E0CDE50A
:1000F000D0E004C02197FE010E945E08CC35D107F4
:10010000C9F70E94CD040C9464080C94000090E0A0
:10011000FC01EC55FF4F249180579F4FFC018491C7
:10012000882399F090E0880F991FFC01EA57FF4F50
:10013000A591B491FC01E458FF4F859194918FB73C
:10014000F894EC91E22BEC938FBF0895AF92BF929D
:10015000CF92DF92EF92FF920F931F93CF93DF9393
:100160006C017B018B01040F151FEB015E01AE18C2
:10017000BF08C017D10759F06991D601ED91FC91E4
:100180000190F081E02DC6010995892B79F7C50111
:10019000DF91CF911F910F91FF90EF90DF90CF9063
:1001A000BF90AF900895FC01538D448D252F30E012
:1001B000842F90E0821B930B541710F0CF96089574
:1001C00001970895FC01918D828D981761F0A28DA1
:1001D000AE0FBF2FB11D5D968C91928D9F5F9F7367
:1001E000928F90E008958FEF9FEF0895FC01918D1D
:1001F000828D981731F0828DE80FF11D858D90E08A
:1002000008958FEF9FEF0895FC01918D228D892F26
:1002100090E0805C9F4F821B91098F73992708950E
:100220008DE491E00E94040121E0892B09F420E093
:10023000822F089580E090E0892B29F00E94100120
:1002400081110C9400000895FC01A48DA80FB92F12
:10025000B11DA35ABF4F2C91848D90E001968F73EE
:100260009927848FA689B7892C93A089B1898C910D
:10027000837080648C93938D848D981306C002885C
:10028000F389E02D80818F7D80830895EF92FF9226
:100290000F931F93CF93DF93EC0181E0888F9B8DA9
:1002A0008C8D98131AC0E889F989808185FF15C063
:1002B0009FB7F894EE89FF896083E889F989808186
:1002C0008370806480839FBF81E090E0DF91CF9155
:1002D0001F910F91FF90EF900895F62E0B8D10E077
:1002E0000F5F1F4F0F731127E02E8C8D8E110CC0E6
:1002F0000FB607FCFACFE889F989808185FFF5CF31
:10030000CE010E942401F1CFEB8DEC0FFD2FF11DEA
:10031000E35AFF4FF0829FB7F8940B8FEA89FB896D
:1003200080818062CFCFCF93DF93EC01888D8823CB
:10033000B9F0AA89BB89E889F9898C9185FD03C048
:10034000808186FD0DC00FB607FCF7CF8C9185FF2D
:10035000F2CF808185FFEDCFCE010E942401E9CF4D
:10036000DF91CF91089590E0FC01E859FF4F24916F
:10037000FC01EC55FF4F3491FC01E057FF4FE49135
:10038000EE23C9F0222339F0233001F1A8F4213003
:1003900019F1223029F1F0E0EE0FFF1FE458FF4F72
:1003A000A591B4918FB7F894EC91611126C0309566
:1003B0003E233C938FBF08952730A9F02830C9F021
:1003C000243049F7809180008F7D03C080918000A8
:1003D0008F7780938000DFCF84B58F7784BDDBCFAC
:1003E00084B58F7DFBCF8091B0008F778093B00074
:1003F000D2CF8091B0008F7DF9CF3E2BDACF8E30F7
:1004000008F08E508770806480937C0080917A0021
:10041000806480937A0080917A0086FDFCCF809181
:1004200078009091790008953FB7F8948091490140
:1004300090914A01A0914B01B0914C0126B5A89B27
:1004400005C02F3F19F00196A11DB11D3FBFBA2F66
:10045000A92F982F8827BC01CD01620F711D811D26
:10046000911D42E0660F771F881F991F4A95D1F7AB
:100470000895089590E080E00895FC010190002027
:10048000E9F73197AF01481B590BBC018AEE91E0A7
:100490000C94A6008F929F92AF92BF920F931F93DE
:1004A000CF93DF93CDB7DEB7A1970FB6F894DEBF39
:1004B0000FBECDBF19A2423008F44AE08E010F5D95
:1004C0001F4F842E912CB12CA12CA50194010E94C8
:1004D0003C08E62FB901CA01EA30F4F4E05DD80126
:1004E000EE938D01232B242B252B79F790E080E0D0
:1004F000109719F0CD010E943D02A1960FB6F89415
:10050000DEBF0FBECDBFDF91CF911F910F91BF9086
:10051000AF909F908F900895E95CE1CFCF93DF93E8
:10052000EC0160E08E810E94B30161E08E810E9447
:10053000B30160E08E810E94B3018BE891E00197E6
:10054000F1F7DF91CF910895CF92DF92EF92FF9272
:100550000F931F93CF93DF936C017C0187E0E80E2C
:10056000F11CD0E0C0E0062F10E0B8010C2E02C054
:10057000759567950A94E2F76170F70181917F01A3
:100580000E94B3012196C430D10579F7C601DF91ED
:10059000CF911F910F91FF90EF90DF90CF900C942F
:1005A0008E02CF92DF92EF92FF920F931F93CF9321
:1005B000DF93EC01F62E642F8C810E94B3018D81B4
:1005C0008F3F19F060E00E94B3010F2D10E08F857E
:1005D00084FF25C06E0187E0C80ED11CF12CE12CF0
:1005E000B8010E2C02C0759567950A94E2F7617008
:1005F000F60181916F010E94B301FFEFEF1AFF0A2C
:1006000088E0E816F10461F7CE01DF91CF911F91E8
:100610000F91FF90EF90DF90CF900C948E02B80175
:1006200084E0759567958A95E1F7CE010E94A40252
:100630006F2DCE01DF91CF911F910F91FF90EF9021
:10064000DF90CF900C94A40240E0682F8AEE91E0F6
:100650000C94D102CF93DF93613029F09091F9018E
:1006600098609093F9016093FD011092FE0190E46F
:100670009093FF0180930002805C8093010280913F
:10068000EE010E9487008091EF018F3F11F00E94E0
:1006900087008091F0010E948700CAEED1E09E01A0
:1006A0002A5E31408091F90184FD0AC084E090E027
:1006B0002196281739073CF48E810E948700EFCFDE
:1006C00088E090E0F5CF8BE39DE00197F1F760E0E3
:1006D0008091EE010E94B30160E08091F0010E94E0
:1006E000B3018091EF018F3F19F060E00E94B301E8
:1006F0008091F90184FD39C063E08AEE91E00E94A7
:10070000A402CBE4D6E4CE010197F1F763E08AEED0
:1007100091E00E94A4022197F1F763E08AEE91E054
:100720000E94A40283E592E00197F1F762E08AEE6D
:1007300091E00E94A4028091F90180620E9424034A
:1007400084E08093FA018CE00E94240381E00E94FF
:1007500024038BE39FE10197F1F782E08093FB0193
:1007600086E0DF91CF910C94240380620E942403E1
:100770008BE496E40197F1F78091F90180620E9481
:10078000240383E592E00197F1F78091F9018062FB
:100790000E942403D0CF9091FD01691710F06FEFF4
:1007A000690FE62FF0E0E651FE4F9489890F8068CB
:1007B0000C94240341E00E94D10281E090E008956E
:1007C0001F920F920FB60F9211242F933F934F93C6
:1007D0005F936F937F938F939F93AF93BF93EF93A9
:1007E000FF938DE491E00E942401FF91EF91BF916E
:1007F000AF919F918F917F916F915F914F913F91B9
:100800002F910F900FBE0F901F9018951F920F926F
:100810000FB60F9211242F938F939F93EF93FF9313
:10082000E0915D01F0915E018081E0916301F091C2
:10083000640182FD1BC09081809166018F5F8F7380
:1008400020916701821741F0E0916601F0E0E35BDF
:10085000FE4F958F80936601FF91EF919F918F914D
:100860002F910F900FBE0F901F9018958081F4CF9D
:100870001F920F920FB60F9211242F933F938F93D5
:100880009F93AF93BF938091450190914601A091B2
:100890004701B09148013091440123E0230F2D37E7
:1008A00058F50196A11DB11D209344018093450187
:1008B00090934601A0934701B0934801809149016C
:1008C00090914A01A0914B01B0914C010196A11D5C
:1008D000B11D8093490190934A01A0934B01B093BD
:1008E0004C01BF91AF919F918F913F912F910F90AC
:1008F0000FBE0F901F90189526E8230F0296A11D9A
:10090000B11DD2CFEDE4F1E01382128288EE93E0C4
:10091000A0E0B0E084839583A683B78384E091E070
:100920009183808385EC90E09587848784EC90E0C8
:100930009787868780EC90E0918B808B81EC90E0AC
:10094000938B828B82EC90E0958B848B86EC90E08D
:10095000978B868B118E128E138E148EEAEEF1E039
:100960001382128286E191E0918380838DE08483FB
:100970008FEF85838CE086838BE087838AE0808796
:1009800089E0818788E0828713861486158616861B
:10099000178661E080E10C942A03789484B5826024
:1009A00084BD84B5816084BD85B5826085BD85B513
:1009B000816085BD80916E00816080936E00109291
:1009C000810080918100826080938100809181000C
:1009D000816080938100809180008160809380009D
:1009E0008091B10084608093B1008091B0008160FB
:1009F0008093B00080917A00846080937A00809127
:100A00007A00826080937A0080917A00816080937E
:100A10007A0080917A00806880937A001092C100F9
:100A2000E0915D01F0915E0182E08083E0915901E7
:100A3000F0915A011082E0915B01F0915C018FEC22
:100A4000808310926501E0916101F091620186E07E
:100A50008083E0915F01F0916001808180618083FB
:100A6000E0915F01F0916001808188608083E09176
:100A70005F01F0916001808180688083E0915F0177
:100A8000F091600180818F7D808364E084E10E9429
:100A90002A0360E080E00E94CB038EE191E00E9497
:100AA0003D0261E080E00E94CB038FE291E00E9472
:100AB0003D020E9414024B015C0188EEC82E83E0C7
:100AC000D82EE12CF12C0E941402681979098A09A8
:100AD0009B09683E734081059105A8F321E0C21A85
:100AE000D108E108F10888EE880E83E0981EA11C69
:100AF000B11CC114D104E104F10429F781E00E9482
:100B000024038BE39FE10197F1F7C0E0D0E08EE092
:100B10000E94FF018EE00E94FF01BC01990F880B2B
:100B2000990B0E94150720E030E040EA5BE30E9449
:100B3000CA0720E030E048EC52E40E94CA076B018B
:100B40007C014B015C0164E084E10E942A0362E0C5
:100B500080E00E94CB0382E291E00E943D0263E0CC
:100B600080E00E94CB03A7019601C701B6010E9455
:100B70003708882309F186E391E00E943D0263E093
:100B800086E00E94CB0341E06FED8AEE91E00E9487
:100B9000D10263E087E00E94CB0382E491E00E94EF
:100BA0003D02209709F4B3CF0E941001882309F475
:100BB000AECF0E940000ABCF26013701E89477F852
:100BC0002FEF3FEF4FE75FE7C301B2010E94370805
:100BD00081110DC02FEF3FEF4FE75FE7C301B20177
:100BE0000E94DF0618161CF48AE391E0C6CF2FEFAF
:100BF0003FEF4FE75FE4C701B6010E94C507181633
:100C00001CF48EE391E0B9CF2FEF3FEF4FE75FEC9D
:100C1000C701B6010E94DF0687FDF3CF20E030E078
:100C2000A901C701B6010E94DF0687FF0CC041E0A1
:100C30006DE28AEE91E00E94D10246015701B7FAB7
:100C4000B094B7F8B0942AE037ED43EA5BE3C5010E
:100C5000B4010E9473064B015C010E94E4066B0123
:100C60007C010E9413079B01AC01C501B4010E94E5
:100C700072064B015C014AE0C701B6010E944A02BC
:100C800041E06EE28AEE91E00E94D10220E030E085
:100C900040E251E4C501B4010E94CA074B015C0166
:100CA0000E94E4066B01F12CE12C4AE0C701B60179
:100CB0000E944A02C701B6010E9413079B01AC01C2
:100CC000C501B4010E94720620E030E040E251E428
:100CD0000E94CA070E94E40690E080E04AE00E9479
:100CE0004A024DCF5058BB27AA270E948A060C946F
:100CF0008B070E947D0738F00E94840720F039F4AA
:100D00009F3F19F426F40C947A070EF4E095E7FB64
:100D10000C947407E92F0E949C0758F3BA176207D6
:100D200073078407950720F079F4A6F50C94BE07A5
:100D30000EF4E0950B2EBA2FA02D0B01B9019001F6
:100D40000C01CA01A0011124FF27591B99F0593F3A
:100D500050F4503E68F11A16F040A22F232F342F82
:100D60004427585FF3CF469537952795A795F040D0
:100D70005395C9F77EF41F16BA0B620B730B840BE5
:100D8000BAF09150A1F0FF0FBB1F661F771F881F9D
:100D9000C2F70EC0BA0F621F731F841F48F48795F5
:100DA00077956795B795F7959E3F08F0B0CF9395E7
:100DB000880F08F09927EE0F9795879508950E9460
:100DC000500708F481E008950E94A40788F09F5717
:100DD00098F0B92F9927B751B0F0E1F0660F771F5F
:100DE000881F991F1AF0BA95C9F714C0B13091F055
:100DF0000E94BE07B1E008950C94BE07672F782FBC
:100E00008827B85F39F0B93FCCF386957795679519
:100E1000B395D9F73EF490958095709561957F4F85
:100E20008F4F9F4F0895E89409C097FB3EF490952B
:100E30008095709561957F4F8F4F9F4F9923A9F0B3
:100E4000F92F96E9BB279395F69587957795679542
:100E5000B795F111F8CFFAF4BB0F11F460FF1BC086
:100E60006F5F7F4F8F4F9F4F16C0882311F096E919
:100E700011C0772321F09EE8872F762F05C06623C7
:100E800071F096E8862F70E060E02AF09A95660F80
:100E9000771F881FDAF7880F9695879597F9089539
:100EA000990F0008550FAA0BE0E8FEEF161617067B
:100EB000E807F907C0F012161306E407F50798F0E3
:100EC000621B730B840B950B39F40A2661F0232BFC
:100ED000242B252B21F408950A2609F4A140A69578
:100EE0008FEF811D811D089597F99F6780E870E05D
:100EF00060E008959FEF80EC089500240A94161690
:100F0000170618060906089500240A9412161306F7
:100F1000140605060895092E0394000C11F4882385
:100F200052F0BB0F40F4BF2B11F460FF04C06F5FA1
:100F30007F4F8F4F9F4F089557FD9058440F551F77
:100F400059F05F3F71F04795880F97FB991F61F04B
:100F50009F3F79F087950895121613061406551FC2
:100F6000F2CF4695F1DF08C0161617061806991F2E
:100F7000F1CF86957105610508940895E894BB2723
:100F800066277727CB0197F908950E94500708F448
:100F90008FEF08950E94DD070C948B070E947D0758
:100FA00038F00E94840720F0952311F00C94740708
:100FB0000C947A0711240C94BF070E949C0770F3CD
:100FC000959FC1F3950F50E0551F629FF001729FEE
:100FD000BB27F00DB11D639FAA27F00DB11DAA1FFD
:100FE000649F6627B00DA11D661F829F2227B00D4A
:100FF000A11D621F739FB00DA11D621F839FA00DD5
:10100000611D221F749F3327A00D611D231F849F24
:10101000600D211D822F762F6A2F11249F5750407B
:101020009AF0F1F088234AF0EE0FFF1FBB1F661FF6
:10103000771F881F91505040A9F79E3F510580F0BF
:101040000C9474070C94BF075F3FE4F3983ED4F30D
:10105000869577956795B795F795E7959F5FC1F763
:10106000FE2B880F911D9695879597F908950E94FC
:101070005007880B990B0895A1E21A2EAA1BBB1BDF
:10108000FD010DC0AA1FBB1FEE1FFF1FA217B30754
:10109000E407F50720F0A21BB30BE40BF50B661F6A
:1010A000771F881F991F1A9469F76095709580952E
:1010B00090959B01AC01BD01CF010895EE0FFF1F7C
:0C10C0000590F491E02D0994F894FFCF06
:1010CC00000000004601A600D30093010401E200D9
:1010DC00F60000000000DA03A6003A02390243458C
:1010EC004B2053554855205255414E47414E004CCC
:1010FC004142205449006E616E00696E66006F7645
:04110C006600430036
:00000001FF
